{
  "contractName": "Nebula",
  "abi": [
    {
      "inputs": [],
      "payable": false,
      "stateMutability": "nonpayable",
      "type": "constructor"
    },
    {
      "payable": true,
      "stateMutability": "payable",
      "type": "fallback"
    },
    {
      "constant": false,
      "inputs": [
        {
          "internalType": "address",
          "name": "_partner",
          "type": "address"
        }
      ],
      "name": "registerPartner",
      "outputs": [],
      "payable": false,
      "stateMutability": "nonpayable",
      "type": "function"
    },
    {
      "constant": false,
      "inputs": [
        {
          "internalType": "address",
          "name": "_customer",
          "type": "address"
        }
      ],
      "name": "registerCustomer",
      "outputs": [],
      "payable": false,
      "stateMutability": "nonpayable",
      "type": "function"
    },
    {
      "constant": false,
      "inputs": [
        {
          "internalType": "address",
          "name": "_artist",
          "type": "address"
        }
      ],
      "name": "registerArtist",
      "outputs": [],
      "payable": false,
      "stateMutability": "nonpayable",
      "type": "function"
    }
  ],
  "bytecode": "0x608060405234801561001057600080fd5b5061016a806100206000396000f3fe6080604052600436106100345760003560e01c806308f7fbbe146100395780634cb33d5b1461008a5780637520320f146100db575b600080fd5b34801561004557600080fd5b506100886004803603602081101561005c57600080fd5b81019080803573ffffffffffffffffffffffffffffffffffffffff16906020019092919050505061012c565b005b34801561009657600080fd5b506100d9600480360360208110156100ad57600080fd5b81019080803573ffffffffffffffffffffffffffffffffffffffff16906020019092919050505061012f565b005b3480156100e757600080fd5b5061012a600480360360208110156100fe57600080fd5b81019080803573ffffffffffffffffffffffffffffffffffffffff169060200190929190505050610132565b005b50565b50565b5056fea265627a7a723158204464f4ec80a39f367dbfbd0aa1d2d86ca84306c7190f0d876bd36f3b1a70b5a464736f6c63430005100032",
  "source": "// SPDX-License-Identifier: MIT\npragma solidity >=0.4.22 <0.9.0;\n\ncontract Nebula {\n  \n  //State variables\n\n  //Events - publicize actions to external listeners\n\n  //functions\n  constructor() public {\n  }\n\n  // Fallback function - Called if other functions don't match call or\n  // sent ether without data\n  // Typically, called when invalid data is sent\n  // Added so ether sent to this contract is reverted if the contract fails\n  // otherwise, the sender's money is transferred to contract\n  function () external payable {\n    revert();\n  }\n\n  //Register partner\n  function registerPartner(address _partner) public {\n\n  }\n\n  //Register customer\n  function registerCustomer(address _customer) public {\n\n  }\n\n  //Register artist\n  function registerArtist(address _artist) public {\n\n  }\n\n}\n",
  "sourcePath": "/Users/madtrix/Documents/repos/blockchain-developer-bootcamp-final-project/contracts/Nebula.sol",
  "compiler": {
    "name": "solc",
    "version": "0.5.16+commit.9c3226ce.Emscripten.clang"
  },
  "schemaVersion": "3.4.3",
  "updatedAt": "2021-10-28T07:30:28.859Z",
  "devdoc": {
    "methods": {}
  },
  "userdoc": {
    "methods": {}
  }
}